:100000000C9488000C94B0000C94B0000C94B000D8
:100010000C94B0000C94B0000C94B0000C94B000A0
:100020000C94B0000C94B0000C94B0000C94B00090
:100030000C94B0000C94B0000C94B0000C94B00080
:100040000C947D050C94B0000C94B0000C94B0009E
:100050000C94B0000C94B0000C94B0000C94B00060
:100060000C94C7050C94B000000000002500280087
:100070002B00040404040404040402020202020229
:10008000030303030303010204081020408001025C
:1000900004081020010204081020000000080002DB
:1000A00001000003040700000000000000000086BB
:1000B000227E6DD24620290B2170104080523F06CF
:1000C0005B4F666D7D077F6F090D614843D35F7796
:1000D0007C395E79713D76301E753815373F736B0C
:1000E000336D783E3E2A766E5B39640F2308025FDB
:1000F0007C585E7B716F74100C753014545C7367A0
:10010000506D781C1C14766E5B4630700100E6065C
:1001100011241FBECFEFD8E0DEBFCDBF11E0A0E0BD
:10012000B1E0ECE1F9E102C005900D92AA31B1070E
:10013000D9F722E0AAE1B1E001C01D92AA30B207CE
:10014000E1F710E0C8E8D0E004C02197FE010E946A
:100150002009C738D107C9F70E9402070C948C0CFC
:100160000C9400008530A8F4262F2052330BF9019F
:10017000E255FF4FE491A82FB0E0AA0FBB1FAD508E
:10018000BE4F30E8439FA0011124E42BF0E0ED9333
:10019000FC9308954F925F926F927F928F929F92FD
:1001A000AF92BF92CF92DF92EF92FF920F931F9385
:1001B000CF93DF93CDB7DEB729970FB6F894DEBFA4
:1001C0000FBECDBF4B015C01142F20E030E0A90130
:1001D0000E94A20900E044E0742E87FF07C0B7FA2E
:1001E000B094B7F8B09401E053E0752E20E030E011
:1001F00040E05FE3C501B4010E9436090E94190A7C
:100200006B017C011E821D8281E090E0A0E0B0E0E5
:1002100089839A83AB83BC83E72DF0E0412E512C78
:10022000712C612CAD81BE81AE17BF0794F429817A
:100230003A814B815C81C301B2010E94BB08698392
:100240007A838B839C838D819E8101969E838D838F
:10025000E9CF412C512C30E8632E3FE3732E1986F1
:10026000812F90E0B0E0A0E08D839E83AF83B887BC
:1002700089819A81AB81BC81C816D906EA06FB0642
:1002800010F19985915099876D817E818F81988534
:100290000E944A0A9B01AC01C301B2010E94A70956
:1002A0002B013C01AC019B01C501B4010E94FA0A7B
:1002B00020E030E040E05FE30E9436090E94190A26
:1002C0006B017C01D5CF20E030E040E85FE3C30163
:1002D000B2010E94A20987FF2DC080E490E09093B4
:1002E000F4018093F3019093F6018093F50110924D
:1002F000F8011092F7019093FA018093F90190931D
:10030000FC018093FB0129960FB6F894DEBF0FBE67
:10031000CDBFDF91CF911F910F91FF90EF90DF90B4
:10032000CF90BF90AF909F908F907F906F905F9095
:100330004F900895A12CA4E0A983412E512C712C3B
:10034000612CC114D104E104F10421F4B985BA157A
:1003500008F44BC08985882319F0BB24B3948A1113
:10036000B12C1981912F91509983992E153018F540
:10037000C701B601A30192010E94DF08862F6031F8
:10038000D0F4605D4B2D8A3098F064E68D3081F0BA
:1003900048F462E48B3061F063E48C3049F04B2D1B
:1003A00061E606C065E48E3019F066E48F30B9F777
:1003B000812F0E94B200A981A23069F412501983E2
:1003C000B4E0B91540F0E92DF0E0EE0FFF1FED505D
:1003D000FE4F11821082C701B601A30192010E9453
:1003E000DF0869017A01A394ACCF002379F0E98199
:1003F0008E2F81508983E53048F4F0E0EE0FFF1F27
:10040000ED50FE4F80E490E091838083A981A7FDA9
:100410007ACFA53044F4EA2FF0E0EE0FFF1FED5045
:10042000FE4F11821082998191509983EFCF0895E8
:10043000089590E0FC01E656FF4F2491FC01EA5735
:10044000FF4F3491FC01EE58FF4FE491EE23C9F0C9
:10045000222339F0233001F1A8F4213019F12230A0
:1004600029F1F0E0EE0FFF1FE859FF4FA591B4917D
:100470008FB7F894EC91611126C030953E233C93E0
:100480008FBF08952730A9F02830C9F0243049F7EC
:10049000809180008F7D03C0809180008F77809352
:1004A0008000DFCF84B58F7784BDDBCF84B58F7DAF
:1004B000FBCF8091B0008F778093B000D2CF809136
:1004C000B0008F7DF9CF3E2BDACF3FB7F894809103
:1004D0008B0190918C01A0918D01B0918E0126B578
:1004E000A89B05C02F3F19F00196A11DB11D3FBF6C
:1004F000BA2FA92F982F8827BC01CD01620F711D3B
:10050000811D911D42E0660F771F881F991F4A9534
:10051000D1F708958F929F92AF92BF92CF92DF92C0
:10052000EF92FF924B015C010E9465026B017C011E
:100530000E9465026C197D098E099F09683E73400F
:1005400081059105A8F321E0821A9108A108B1085C
:1005500088EEC80E83E0D81EE11CF11C81149104C2
:10056000A104B10429F7FF90EF90DF90CF90BF90E6
:10057000AF909F908F90089520915B01260F3327B5
:10058000331F21323105ECF42091BB01FC0190E0D6
:1005900080E0243069F082E00895A0915B01219110
:1005A000AC01455C5E4FA40FB52FB11D2C93019695
:1005B000861798F380915B01680F60935B0180E080
:1005C000089581E008951092BB0181E08093BA0103
:1005D0001092950161E082E10E94190261E083E1DD
:1005E0000E941902E9EBF0E080818E7F8083808198
:1005F0008D7F808388E48093B80085E48093BC007D
:100600000895CF93DF9391E090933A018823B9F056
:10061000C091B800D091BA008091BC008A7B8093D1
:10062000BC0060E082E10E94190260E083E10E9468
:1006300019020E94E302D093BA00C093B800DF9180
:10064000CF9108958F929F92AF92BF92CF92DF92F7
:10065000EF92FF920F931F93CF93DF93D091E4011A
:10066000D13208F0D7C0182FC091E3010E94650273
:100670006B017C018091BB0181116BC082E0809392
:10068000BB011093BA018FEF8093B9011092B801AA
:10069000D093B701A3ECB1E0E7E9F1E080E0D81333
:1006A00091C01092960180919601CC0FC82BC093F7
:1006B000960180919501813009F088C010929501D2
:1006C0000E9465026B017C01809196018093BB00C2
:1006D0008091BD019091BE01A091BF01B091C00178
:1006E000892B8A2B8B2BA1F00E9465020091BD0102
:1006F0001091BE012091BF013091C0016C197D099C
:100700008E099F09061717072807390708F442C002
:100710008091BC0083FDD8CF85EC8093BC000E9403
:1007200065026B017C018091BB01823009F450C0ED
:100730008091B9018F3F09F46FC08091B901803277
:1007400009F46CC08091B901803309F469C084E078
:1007500026C08091BD019091BE01A091BF01B091D2
:10076000C001892B8A2B8B2B09F484CF0E94650250
:100770008090BD019090BE01A090BF01B090C001DB
:100780006C197D098E099F0986169706A806B90679
:1007900008F070CF8091BC010E94010385E01092A7
:1007A000C2011092E4011092C101DF91CF911F911B
:1007B0000F91FF90EF90DF90CF90BF90AF909F9000
:1007C0008F9008959D9191938F5F69CF85EEA5CF0E
:1007D0008091BD019091BE01A091BF01B091C00177
:1007E000892B8A2B8B2B09F49ECF0E9465020091E6
:1007F000BD011091BE012091BF013091C0016C1963
:100800007D098E099F09061717072807390708F081
:100810008ACFC0CF81E0C3CF80E0C1CF82E0BFCF1D
:1008200083E0BDCFCF93DF93EC018B818823A1F0D0
:10083000888191E09093C1018093E3011092C201FD
:100840001092E40181E00E94220391E0811190E086
:10085000892FDF91CF910895109294011092930106
:100860001092C2011092E4010E94E30287E192E03B
:10087000909392018093910188E192E0909390018E
:1008800080938F0181E08B83CE010E941204982F08
:100890008111CECFDDCF0895E09194018091930135
:1008A000E81730F4F0E0E65EFE4F808190E00895B6
:1008B0008FEF9FEF089590919401809193012FEF16
:1008C0003FEF981748F4E92FF0E0E65EFE4F2081F5
:1008D00030E09F5F90939401C90108958091930146
:1008E00090919401891B990B0895CF92DF92EF921A
:1008F000FF920F931F93CF93DF937C01CB018A016B
:100900002091C101222389F0EB016B01C40ED51E99
:10091000CC15DD0569F06991D701ED91FC9101904D
:10092000F081E02DC7010995F3CF642F0E94BC022E
:10093000C801DF91CF911F910F91FF90EF90DF9051
:10094000CF900895CF93DF931F92CDB7DEB7698321
:100950002091C1012223F9F02091E401203258F0C6
:1009600021E030E0FC013383228390E080E00F90AF
:10097000DF91CF9108958091C201E82FF0E0ED530F
:10098000FE4F998190838F5F8093C2018093E40131
:1009900081E090E0ECCF61E0CE0101960E94BC02C4
:1009A000F7CF90E080E00895CF93DF93DC011496B9
:1009B0002D913C912417350710F490E01EC0EA01F8
:1009C000FC0181819281208131E03093C10120932B
:1009D000E3011092C2011092E401DC01ED91FC915F
:1009E0000280F381E02D0995C817D90731F781E01E
:1009F0000E94220391E08111E0CF892FDF91CF91F6
:100A00000895CF93DF931F92CDB7DEB7880F81682B
:100A1000898341E050E0BE016F5F7F4F8091030208
:100A2000909104020E94D4040F90DF91CF91089519
:100A3000CF93DF93CDB7DEB761970FB6F894DEBFE3
:100A40000FBECDBF1982A3EFB1E0FE013196BF0109
:100A50009C9111968C911197129691838283329674
:100A600082E0A330B807A1F741E150E08091030292
:100A7000909104020E94D40461960FB6F894DEBFF0
:100A80000FBECDBFDF91CF91089585ED8093BC005F
:100A90008091BD019091BE01A091BF01B091C001B4
:100AA0000796A11DB11D23E0B695A795979587954B
:100AB0002A95D1F72091BC0024FD03C01092BB0100
:100AC00008954091BD015091BE016091BF017091A8
:100AD000C001452B462B472B69F30097A105B105B3
:100AE00041F025E32A95F1F700000197A109B1092A
:100AF000E1CF8091BC010C9401031F920F920FB6BD
:100B00000F9211242F933F938F939F93AF93BF9393
:100B10008091870190918801A0918901B0918A010B
:100B20003091860123E0230F2D3758F50196A11D42
:100B3000B11D209386018093870190938801A09333
:100B40008901B0938A0180918B0190918C01A091D1
:100B50008D01B0918E010196A11DB11D80938B0175
:100B600090938C01A0938D01B0938E01BF91AF91B2
:100B70009F918F913F912F910F900FBE0F901F90DB
:100B8000189526E8230F0296A11DB11DD2CF1F9202
:100B90000F920FB60F9211242F933F934F935F93B1
:100BA0006F937F938F939F93AF93BF93EF93FF9335
:100BB0008091B900887F803609F44AC0F0F5883208
:100BC00009F4A7C018F5803109F49BC0B8F4882354
:100BD00009F4F9C0883009F494C0FF91EF91BF91F6
:100BE000AF919F918F917F916F915F914F913F91C5
:100BF0002F910F900FBE0F901F901895883109F418
:100C000088C0803251F78093B90114C0803409F450
:100C10009DC040F48033B9F38833F9F68093B9016D
:100C200085ECB0C0803509F485C0883509F496C0DC
:100C3000883499F60E944505D0CF883909F48CC0D4
:100C400038F5883729F050F4883611F0803729F6C6
:100C500083E08093BB0110927D0157C0883809F46E
:100C60007BC0803919F0803809F0B7CF80917D01C1
:100C7000803208F071C0E0917D0181E08E0F809399
:100C80007D018091BB00F0E0E35AFE4F80833DC0C0
:100C9000803B39F0E0F4803A09F479C0883A09F0F1
:100CA0009CCF84E08093BB0110925C0110925B01A9
:100CB000E0919101F0919201099580915B01811180
:100CC0000FC081E080935B0110923B0109C0803C22
:100CD00009F4A6CF883C09F4A3CF883B09F07DCF67
:100CE000E0915C0181E08E0F80935C01F0E0E55CB7
:100CF000FE4F80818093BB0090915C0180915B01ED
:100D000029C0809196018093BB0085EC8093BC0044
:100D100064CF9091B8018091B701981758F5E09190
:100D2000B80181E08E0F8093B801F0E0E956FE4FE4
:100D30008081E9CFE091B80181E08E0F8093B80106
:100D40008091BB00F0E0E956FE4F80839091B8019E
:100D50008091B7019817C8F285E8D8CFE091B80123
:100D600081E08E0F8093B8018091BB00F0E0E956DE
:100D7000FE4F80838091BA0181115CCF81E0809326
:100D8000950184EA8093BC001092BB0126CF85ECCC
:100D90008093BC001092BB0180917D01803230F4C1
:100DA000E0917D01F0E0E35AFE4F108260917D01F9
:100DB00070E0E0918F01F09190018DE591E009954F
:100DC00010927D010ACF1092B90134CFE5EEF1E027
:100DD0001382128288EE93E0A0E0B0E084839583D2
:100DE000A683B7838BE091E091838083E3EFF1E00A
:100DF000118A108A128A8BE490E09093F20180931A
:100E0000F1010895CF93DF9300D0CDB7DEB778948A
:100E100084B5826084BD84B5816084BD85B58260FF
:100E200085BD85B5816085BD80916E0081608093B0
:100E30006E00109281008091810082608093810019
:100E40008091810081608093810080918000816029
:100E5000809380008091B10084608093B100809184
:100E6000B00081608093B00080917A0084608093AC
:100E70007A0080917A00826080937A0080917A0073
:100E8000816080937A0080917A00806880937A00F4
:100E90001092C1008091030290910402009711F01A
:100EA0000E94030C86E090E00E94670B8C0180E7B3
:100EB000F801808385EE91E092838183138280E242
:100EC00090E09583848310930402009303021092B0
:100ED0009401109293011092C2011092E4010E94B9
:100EE000E30287E192E0909392018093910188E17F
:100EF00092E09093900180938F0181E0F8018383C9
:100F0000C8010E941204882309F43FC081E28A8349
:100F100041E050E0BE016E5F7F4F809103029091EF
:100F200004020E94D4041092F4011092F301109272
:100F3000F6011092F5011092F8011092F70110924B
:100F4000FA011092F9011092FC011092FB0110922B
:100F5000FE011092FD01109200021092FF0110920A
:100F60000202109201020E94180580E00E94010511
:100F70008FEE898341E050E0BE016F5F7F4F80912B
:100F80000302909104020E94D40480E00E940105B3
:100F900080EE898341E050E0BE016F5F7F4F80911A
:100FA0000302909104020E94D40402E010E08CE35A
:100FB000E82EF12C94E6B92E20E0C22E20E0D22EAD
:100FC00082E00E9401051093F8010093F7010E944E
:100FD000180560ED77E080E090E00E948A02809141
:100FE0000001882309F4B1C080E00E94010510923D
:100FF000F8011092F7018091F1019091F201B7018F
:101000000E94CB08B69E9001B79E300D1124B90105
:10101000680F791F072E000C880B990B0E944A0A53
:101020004AE00E94CA000E94180568EE73E080E062
:1010300090E00E948A022FB7F894809187019091E6
:101040008801A0918901B0918A012FBF809382010C
:1010500090938301A0938401B093850180937E01D6
:1010600090937F01A0938001B093810180918201D0
:1010700090918301A0918401B091850188509B4D8E
:10108000AE4FBF4F2FB7F894409187015091880120
:101090006091890170918A012FBF481759076A072B
:1010A0007B0708F04FC02FB7F8948091870190918B
:1010B0008801A0918901B0918A012FBF40917E01E2
:1010C00050917F016091800170918101841B950B8B
:1010D000A60BB70B883E9340A105B10538F22FB798
:1010E000F8948091870190918801A0918901B09135
:1010F0008A012FBF80937E0190937F01A09380018E
:10110000B09381018091F1019091F2010197909348
:10111000F2018093F101B7010E94CB08B69E9001C5
:10112000B79E300D1124B901680F791F072E000CEE
:10113000880B990B0E944A0A4AE00E94CA000E944A
:10114000180594CF109200014ACF4AE060E070E0A9
:10115000CB010E94CA001093F8010093F70182E0CE
:101160000E9401050E941805C114D10409F428CF7A
:101170000E94000025CFDB018F939F930E940109FD
:10118000BF91AF91A29F800D911DA39F900DB29F23
:10119000900D1124089597FB072E16F4009407D0A4
:1011A00077FD09D00E940C0907FC05D03EF490950C
:1011B00081959F4F0895709561957F4F0895A1E2A5
:1011C0001A2EAA1BBB1BFD010DC0AA1FBB1FEE1FC1
:1011D000FF1FA217B307E407F50720F0A21BB30B0C
:1011E000E40BF50B661F771F881F991F1A9469F788
:1011F00060957095809590959B01AC01BD01CF01E4
:1012000008950E942609A59F900DB49F900DA49F5C
:10121000800D911D11240895AA1BBB1B51E107C02D
:10122000AA1FBB1FA617B70710F0A61BB70B881F76
:10123000991F5A95A9F780959095BC01CD01089505
:10124000EE0FFF1F0590F491E02D0994A29FB001CD
:10125000B39FC001A39F700D811D1124911DB29FEA
:10126000700D811D1124911D08955058BB27AA2788
:101270000E944D090C94C00A0E94B20A38F00E94E4
:10128000B90A20F039F49F3F19F426F40C94AF0A00
:101290000EF4E095E7FB0C94A90AE92F0E94D10A0D
:1012A00058F3BA17620773078407950720F079F49B
:1012B000A6F50C94F30A0EF4E0950B2EBA2FA02D90
:1012C0000B01B90190010C01CA01A0011124FF27F3
:1012D000591B99F0593F50F4503E68F11A16F040EE
:1012E000A22F232F342F4427585FF3CF46953795ED
:1012F0002795A795F0405395C9F77EF41F16BA0BB2
:10130000620B730B840BBAF09150A1F0FF0FBB1F5F
:10131000661F771F881FC2F70EC0BA0F621F731FA8
:10132000841F48F4879577956795B795F7959E3F05
:1013300008F0B0CF9395880F08F09927EE0F979596
:10134000879508950E94850A08F481E008950E9417
:10135000BB090C94C00A0E94B90A58F00E94B20A54
:1013600040F029F45F3F29F00C94A90A51110C9424
:10137000F40A0C94AF0A0E94D10A68F39923B1F3DE
:10138000552391F3951B550BBB27AA2762177307AB
:10139000840738F09F5F5F4F220F331F441FAA1F3F
:1013A000A9F335D00E2E3AF0E0E832D091505040FB
:1013B000E695001CCAF72BD0FE2F29D0660F771FA9
:1013C000881FBB1F261737074807AB07B0E809F08F
:1013D000BB0B802DBF01FF2793585F4F3AF09E3F14
:1013E000510578F00C94A90A0C94F40A5F3FE4F3D9
:1013F000983ED4F3869577956795B795F7959F5F57
:10140000C9F7880F911D9695879597F90895E1E0A2
:10141000660F771F881FBB1F621773078407BA0701
:1014200020F0621B730B840BBA0BEE1F88F7E0955C
:1014300008950E94D90A88F09F5798F0B92F9927EC
:10144000B751B0F0E1F0660F771F881F991F1AF0AF
:10145000BA95C9F714C0B13091F00E94F30AB1E017
:1014600008950C94F30A672F782F8827B85F39F016
:10147000B93FCCF3869577956795B395D9F73EF448
:1014800090958095709561957F4F8F4F9F4F0895F0
:10149000E89409C097FB3EF490958095709561950E
:1014A0007F4F8F4F9F4F9923A9F0F92F96E9BB27C4
:1014B0009395F695879577956795B795F111F8CF40
:1014C000FAF4BB0F11F460FF1BC06F5F7F4F8F4FAB
:1014D0009F4F16C0882311F096E911C0772321F0A1
:1014E0009EE8872F762F05C0662371F096E8862F39
:1014F00070E060E02AF09A95660F771F881FDAF790
:10150000880F9695879597F90895990F0008550FBC
:10151000AA0BE0E8FEEF16161706E807F907C0F079
:1015200012161306E407F50798F0621B730B840B81
:10153000950B39F40A2661F0232B242B252B21F45B
:1015400008950A2609F4A140A6958FEF811D811DFB
:10155000089597F99F6780E870E060E008959FEF35
:1015600080EC089500240A9416161706180609063A
:10157000089500240A941216130614060506089509
:10158000092E0394000C11F4882352F0BB0F40F491
:10159000BF2B11F460FF04C06F5F7F4F8F4F9F4FD1
:1015A000089557FD9058440F551F59F05F3F71F053
:1015B0004795880F97FB991F61F09F3F79F08795BA
:1015C0000895121613061406551FF2CF4695F1DF43
:1015D00008C0161617061806991FF1CF86957105D3
:1015E000610508940895E894BB2766277727CB0107
:1015F00097F908950E940D0B0C94C00A0E94B20A3C
:1016000038F00E94B90A20F0952311F00C94A90A31
:101610000C94AF0A11240C94F40A0E94D10A70F3BE
:10162000959FC1F3950F50E0551F629FF001729F87
:10163000BB27F00DB11D639FAA27F00DB11DAA1F96
:10164000649F6627B00DA11D661F829F2227B00DE3
:10165000A11D621F739FB00DA11D621F839FA00D6E
:10166000611D221F749F3327A00D611D231F849FBE
:10167000600D211D822F762F6A2F11249F57504015
:101680009AF0F1F088234AF0EE0FFF1FBB1F661F90
:10169000771F881F91505040A9F79E3F510580F059
:1016A0000C94A90A0C94F40A5F3FE4F3983ED4F337
:1016B000869577956795B795F795E7959F5FC1F7FD
:1016C000FE2B880F911D9695879597F908950F9396
:1016D0001F93CF93DF938230910510F482E090E066
:1016E000E0910802F091090230E020E0B0E0A0E0D3
:1016F000309799F42115310509F44AC0281B390B9C
:1017000024303105D8F58A819B816115710589F1F5
:10171000FB0193838283FE0111C0408151810281CC
:10172000138148175907E0F04817590799F41097A3
:1017300061F012960C93129713961C933296CF0178
:10174000DF91CF911F910F9108950093080210939C
:101750000902F4CF2115310551F04217530738F033
:10176000A901DB019A01BD01DF01F801C1CFEF0141
:10177000F9CF9093090280930802CDCFFE01E20FCA
:10178000F31F819391932250310939832883D7CF56
:101790002091060230910702232B41F4209103018E
:1017A0003091040130930702209306022091010139
:1017B000309102012115310541F42DB73EB740911A
:1017C000050150910601241B350BE0910602F091B2
:1017D0000702E217F307A0F42E1B3F0B2817390767
:1017E00078F0AC014E5F5F4F2417350748F04E0F7D
:1017F0005F1F5093070240930602819391939FCFFE
:10180000F0E0E0E09CCFCF93DF930097E9F0FC019C
:10181000329713821282A0910802B0910902ED0161
:1018200030E020E01097A1F420813181820F931FD6
:1018300020910602309107022817390709F061C08C
:10184000F0930702E0930602DF91CF910895EA0139
:10185000CE17DF07E8F54A815B819E0141155105EE
:10186000B1F7E901FB83EA8349915991C40FD51F70
:10187000EC17FD0761F4808191810296840F951F1A
:10188000E90199838883828193819B838A83F0E035
:10189000E0E012968D919C9113970097B9F52D91E8
:1018A0003C911197CD010296820F931F2091060261
:1018B000309107022817390739F6309751F5109201
:1018C000090210920802B0930702A0930602BCCF4F
:1018D000D383C28340815181840F951FC817D907D4
:1018E00061F44E5F5F4F88819981480F591F518382
:1018F00040838A819B81938382832115310509F07E
:10190000B0CFF0930902E09308029ECFFD01DC0105
:0C191000C0CF13821282D7CFF894FFCF13
:10191C000100000A02800000000000A2047504D13E
:0A192C00044B046E045B044C04003D
:00000001FF
